:020000020000FC
:020000001FC21D
:100400004C69676874205261696E202020202000AA
:100410004D6F646572617465205261696E202000C1
:100420004865617679205261696E20202020200085
:100430004E6F205261696E20202020202020200055
:10044000239A03E80093B00002E00093B10000E0BB
:1004500007B908B90FEF0AB904B1036004B900E0A5
:1004600005B9D9D0D8D008E3C4D00CE0C2D001E09F
:10047000C0D0D1D006E0BDD08BD007E800937A0081
:1004800000E000937C0045D010D052D0BCD067D0A3
:1004900040D00BD020911001121729F010931001B9
:1004A00047D0B1D05CD0B7D0F3CF4FEF50E0841736
:1004B0009507F8F040E052E08417950798F04CEB70
:1004C00052E08417950738F013E0F4E0E0E20FEF14
:1004D0000093B30014C012E0F4E0E0E10AEA0093F4
:1004E000B3000DC011E0F4E0E0E005E50093B300D7
:1004F00006C010E0F4E0E0E300E00093B300D1E0D8
:10050000C0E020E1059109932A95003009F0D1F768
:10051000089500E400937C0007EC00937A000091BA
:100520007A0006FDFCCF80917800909179000895C3
:1005300036D080EA40D080E03ED080E03CD0D1E0B0
:10054000C0E020E1899137D02A95E1F730D001D081
:10055000089525D080EA2FD0E1F729D008951FD043
:1005600080EA29D080E027D080E025D018D081EA29
:1005700022D030E03F3011F028D001C030D0082F19
:10058000003021F038D033953031A1F710D00895E4
:1005900000E00093B90000E20093B800089504EA77
:1005A0000093BC000091BC0007FFFCCF089504E954
:1005B0000093BC0008958093BB0004E80093BC0046
:1005C0000091BC0007FFFCCF089504EC0093BC0031
:1005D0000091BC0007FFFCCF8091BB00089504E8A8
:1005E0000093BC000091BC0007FFFCCF8091BB00D2
:1005F0000895289802C0289A00C00BB9299A07D0FC
:10060000299805D0089501E0F4DF05D0089548EC5D
:100610004A95F1F7089554E1FADF5A95E9F70895FC
:00000001FF
